:020000040800F2
:10000000000002201D4400089143000899430008A5
:10001000A1430008A9430008B14300080000000004
:10002000000000000000000000000000713C00081B
:10003000B943000800000000E13E0008C743000883
:1000400071440008714400087144000871440008BC
:1000500071440008714400087144000871440008AC
:10006000714400087144000871440008714400089C
:10007000714400087144000871440008714400088C
:10008000714400087144000871440008714400087C
:10009000714400087144000871440008714400086C
:1000A000714400087144000871440008714400085C
:1000B000714400087144000871440008714400084C
:1000C000714400087144000871440008714400083C
:1000D000714400087144000871440008714400082C
:1000E00071440008714400080000000071440008D9
:1000F000714400087144000871440008714400080C
:1001000071440008714400087144000871440008FB
:1001100071440008714400087144000871440008EB
:1001200071440008714400087144000871440008DB
:1001300071440008714400087144000871440008CB
:1001400000000000000000000000000000000000AF
:1001500071440008714400087144000871440008AB
:10016000714400087144000871440008714400089B
:10017000714400087144000871440008714400088B
:10018000714400087144000871440008714400087B
:10019000714400087144000871440008714400086B
:1001A000714400087144000871440008714400085B
:1001B000714400087144000871440008714400084B
:1001C000714400087144000871440008714400083B
:1001D000714400087144000871440008714400082B
:1001E000714400087144000871440008714400081B
:1001F000714400087144000871440008714400080B
:1002000071440008714400087144000871440008FA
:1002100071440008714400087144000871440008EA
:100220007144000871440008714400080000000097
:100230007144000871440008000000007144000887
:1002400071440008714400087144000871440008BA
:1002500071440008714400087144000871440008AA
:10026000714400087144000871440008714400089A
:100270007144000871440008714400080000000047
:100280007144000871440008714400080000000037
:080290000000000071440008A9
:1002A0000348044B834202D0034B03B11847704705
:1002B0001400002014000020000000000548064B38
:1002C0001B1AD90F01EBA301491002D0034B03B154
:1002D00018477047140000201400002000000000A0
:1002E00010B5064C237843B9FFF7DAFF044B13B17E
:1002F0000448AFF300800123237010BD14000020D8
:1003000000000000E844000808B5054B1BB1054992
:100310000548AFF30080BDE80840FFF7CFBF00BF3E
:100320000000000018000020E844000880B400AF7E
:10033000434BD3F88830424A43F47003C2F8883004
:10034000404B1B6803F00F03062B07D83D4B1B687F
:1003500023F00F033B4A43F0070313603A4B1B683B
:10036000394A43F001031360374B00221A61364BC0
:100370001A683549354B13400B60324B1B6803F04C
:100380000803002B07D02F4B1B6823F00F032D4AC7
:1003900043F0070313602C4B00229A612A4B002282
:1003A000DA61294B00221A62274B294A9A62264BAE
:1003B000284ADA62244B284A1A63234B00225A63E4
:1003C000214B254A9A63204B0022DA631E4B224AB6
:1003D0001A641D4B00225A641B4B1B681A4A23F4F3
:1003E00080231360184B00221A661C4B1A681C4BA2
:1003F0001340B3F1005F02D21A4B01221A60124B74
:10040000D3F8D43003F48053002B13D10E4BD3F820
:10041000D4300D4A43F48053C2F8D430124B43F227
:10042000D2021A60084BD3F8D430074A23F4805321
:10043000C2F8D43000BFBD465DF8047B704700BFF2
:1004400000ED00E000200052004402587FEDF6EA83
:10045000000202020000FF01800201010010005CA6
:100460000000FFFF0881005100400052044BDA6891
:1004700042F00202DA605A689204FCD5704700BF6D
:100480000048025880B485B000AF78607B6803F004
:100490000703FB600B4BDB68BB60BA684FF6FF03DA
:1004A0001340BB60FB681A02BB681A43064B134338
:1004B000BB60044ABB68D36000BF1437BD465DF81B
:1004C000047B704700ED00E00000FA0580B400AF47
:1004D000044BDB681B0A03F007031846BD465DF8B2
:1004E000047B704700ED00E080B483B000AF0346AA
:1004F0003960FB80B7F90630002B0ADB3B68DAB2C3
:100500000C49B7F906301201D2B20B4483F800232C
:100510000AE03B68DAB20849FB8803F00F03043BAA
:100520001201D2B20B441A7600BF0C37BD465DF8FB
:10053000047B704700E100E000ED00E080B489B08A
:1005400000AFF860B9607A60FB6803F00703FB61F5
:10055000FB69C3F10703042B28BF0423BB61FB69BC
:100560000433062B02D9FB69033B00E000237B61C7
:100570004FF0FF32BB6902FA03F3DA43BB681A405B
:100580007B699A404FF0FF317B6901FA03F3D9434D
:100590007B680B40134318462437BD465DF8047B47
:1005A0007047000080B582B000AF78607B68013B87
:1005B000B3F1807F01D301230FE00A4A7B68013B3E
:1005C00053600F214FF0FF30FFF78EFF054B0022E5
:1005D0009A60044B07221A60002318460837BD466C
:1005E00080BD00BF10E000E080B582B000AF786051
:1005F0007868FFF747FF00BF0837BD4680BD80B56C
:1006000086B000AF0346B9607A60FB81FFF75EFFFA
:1006100078617A68B9687869FFF790FF0246B7F9A0
:100620000E3011461846FFF75FFF00BF1837BD4672
:1006300080BD80B582B000AF78607868FFF7B2FF08
:10064000034618460837BD4680BD000080B400AFA1
:10065000BFF35F8F00BF074B5B6A064A23F480330A
:100660005362054B00225A6000BFBD465DF8047B13
:10067000704700BF00ED00E090ED00E080B483B073
:1006800000AF78600B4A7B6843F0010353600A4B6C
:100690005B6A094A43F480335362BFF34F8F00BF54
:1006A000BFF36F8F00BF00BF0C37BD465DF8047B02
:1006B000704700BF90ED00E000ED00E080B483B033
:1006C00000AF78607B685A781B4B9A601A4B1B69A5
:1006D000194A23F001031361174A7B685B68D360F2
:1006E0007B681B7B1A077B68DB7A1B061A437B68D7
:1006F0009B7ADB041A437B685B7B9B041A437B6811
:100700009B7B5B041A437B68DB7B1B041A437B687F
:100710005B7A1B021A437B681B7A5B0013437A687F
:1007200012781146044A0B43136100BF0C37BD46D3
:100730005DF8047B704700BF90ED00E080B58CB0A1
:1007400000AF78607B68002B02D1012300F048BC29
:100750007B681B6803F00103002B00F08880994B35
:100760001B6903F03803FB62964B9B6ABB62FB6A12
:10077000102B07D0FB6A182B11D1BB6A03F00303BF
:10078000022B0CD18F4B1B6803F40033002B6DD070
:100790007B685B68002B69D1012300F021BC7B687A
:1007A0005B68B3F5803F06D1864B1B68854A43F4EE
:1007B000803313602EE07B685B68002B0CD1814B8B
:1007C0001B68804A23F4803313607E4B1B687D4A8C
:1007D00023F4802313601DE07B685B68B3F5A02FD2
:1007E0000CD1784B1B68774A43F480231360754B18
:1007F0001B68744A43F4803313600BE0714B1B6831
:10080000704A23F4803313606E4B1B686D4A23F4E7
:10081000802313607B685B68002B13D001F0C6F95E
:10082000786208E001F0C2F902467B6AD31A642BB1
:1008300001D90323D4E3634B1B6803F40033002B7B
:10084000F0D014E001F0B2F9786208E001F0AEF9FE
:1008500002467B6AD31A642B01D90323C0E3594BA8
:100860001B6803F40033002BF0D100E000BF7B686D
:100870001B6803F00203002B00F0CA80514B1B6978
:1008800003F038033B624F4B9B6AFB613B6A002BD2
:1008900007D03B6A182B56D1FB6903F00303002BEA
:1008A00051D1484B1B6803F00403002B05D07B6833
:1008B000DB68002B01D1012392E3424B1B6823F03C
:1008C00019027B68DB683F4913430B6001F06EF946
:1008D000786208E001F06AF902467B6AD31A022BBB
:1008E00001D903237CE3374B1B6803F00403002B7F
:1008F000F0D001F067F9034641F20302934217D8A2
:100900007B681B69402B08D12E4B5B6823F47C333A
:100910002C4A43F4003353607AE02A4B5B6823F49B
:100920007C327B681B691B03264913434B606FE0D5
:10093000244B5B6823F0FE427B681B691B06214940
:1009400013434B6064E07B68DB68002B47D01D4B92
:100950001B6823F019027B68DB681A4913430B609C
:1009600001F024F9786208E001F020F902467B6A80
:10097000D31A022B01D9032332E3124B1B6803F075
:100980000403002BF0D001F01DF9034641F20302ED
:10099000934219D87B681B69402B08D1094B5B68CF
:1009A00023F47C33074A43F40033536030E0054BB3
:1009B0005B6823F47C327B681B691B03014913438A
:1009C0004B6025E0004402589A4B5B6823F0FE42DE
:1009D0007B681B691B06974913434B6018E0954BD6
:1009E0001B68944A23F00103136001F0DFF878627A
:1009F00008E001F0DBF802467B6AD31A022B01D92A
:100A00000323EDE28B4B1B6803F00403002BF0D1B2
:100A10007B681B6803F01003002B00F0A980854B56
:100A20001B6903F03803BB61824B9B6A7B61BB6926
:100A3000082B07D0BB69182B3AD17B6903F003035D
:100A4000012B35D17B4B1B6803F48073002B05D041
:100A50007B68DB69802B01D00123C1E201F0B2F891
:100A6000034641F20302934217D87B681B6A202B8E
:100A700008D1704B5B6823F0F8436E4A43F0804323
:100A8000536075E06B4B5B6823F0F8427B681B6A30
:100A90009B06684913434B606AE0664BDB6823F0B2
:100AA0007C527B681B6A1B0662491343CB605FE084
:100AB0007B68DB69002B42D05E4B1B685D4A43F0CC
:100AC0008003136001F072F8786208E001F06EF8BC
:100AD00002467B6AD31A022B01D9032380E2554BCD
:100AE0001B6803F48073002BF0D001F06BF8034611
:100AF00041F20302934217D87B681B6A202B08D16E
:100B00004C4B5B6823F0F8434A4A43F08043536000
:100B10002EE0484B5B6823F0F8427B681B6A9B061B
:100B2000444913434B6023E0424BDB6823F07C5283
:100B30007B681B6A1B063F491343CB6018E03D4BA3
:100B40001B683C4A23F08003136001F02FF87862A1
:100B500008E001F02BF802467B6AD31A022B01D978
:100B600003233DE2334B1B6803F48073002BF0D169
:100B70007B681B6803F00803002B36D07B685B6939
:100B8000002B19D02B4B5B6F2A4A43F001035367AC
:100B900001F00CF8786208E001F008F802467B6A80
:100BA000D31A022B01D903231AE2224B5B6F03F005
:100BB0000203002BF0D018E01E4B5B6F1D4A23F0A0
:100BC0000103536700F0F2FF786208E000F0EEFFE7
:100BD00002467B6AD31A022B01D9032300E2154B8C
:100BE0005B6F03F00203002BF0D17B681B6803F0FE
:100BF0002003002B39D07B689B69002B1CD00D4B48
:100C00001B680C4A43F48053136000F0CFFF7862F6
:100C100008E000F0CBFF02467B6AD31A022B01D911
:100C20000323DDE1034B1B6803F40053002BF0D0DA
:100C30001BE000BF004402589B4B1B689A4A23F4F8
:100C40008053136000F0B2FF786208E000F0AEFF5E
:100C500002467B6AD31A022B01D90323C0E1924BCF
:100C60001B6803F40053002BF0D17B681B6803F072
:100C70000403002B00F081808C4B1B688B4A43F4EB
:100C80008073136000F092FF786208E000F08EFF3E
:100C900002467B6AD31A642B01D90323A0E1834B5C
:100CA0001B6803F48073002BF0D07B689B68012BDA
:100CB00006D17D4B1B6F7C4A43F0010313672DE087
:100CC0007B689B68002B0CD1774B1B6F764A23F017
:100CD00001031367744B1B6F734A23F004031367FC
:100CE0001CE07B689B68052B0CD16F4B1B6F6E4A19
:100CF00043F0040313676C4B1B6F6B4A43F0010313
:100D000013670BE0684B1B6F674A23F001031367FF
:100D1000654B1B6F644A23F0040313677B689B6871
:100D2000002B15D000F042FF78620AE000F03EFF91
:100D300002467B6AD31A41F28832934201D90323D7
:100D40004EE1594B1B6F03F00203002BEED014E071
:100D500000F02CFF78620AE000F028FF02467B6A70
:100D6000D31A41F28832934201D9032338E14E4B22
:100D70001B6F03F00203002BEED17B685B6A002B34
:100D800000F02D81484B1B6903F03803182B00F04D
:100D9000BD807B685B6A022B40F09E80424B1B68E3
:100DA000414A23F08073136000F000FF786208E08E
:100DB00000F0FCFE02467B6AD31A022B01D9032302
:100DC0000EE1394B1B6803F00073002BF0D1364B5A
:100DD0009A6A374B13407A68916A7A68D26A12012C
:100DE0000A43314913438B627B681B6B013BC3F39E
:100DF00008027B685B6B013B5B029BB21A437B681A
:100E00009B6B013B1B0403F4FE031A437B68DB6B03
:100E1000013B1B0603F0FE43234913430B63224BA4
:100E2000DB6A214A23F00103D3621F4B5A6B214B2B
:100E300013407A68926CD2001B4913434B631A4BE0
:100E4000DB6A23F00C027B681B6C17491343CB62EF
:100E5000154BDB6A23F002027B685B6C124913437B
:100E6000CB62114BDB6A104A43F48033D3620E4BE2
:100E7000DB6A0D4A43F40033D3620B4BDB6A0A4A48
:100E800043F48023D362084BDB6A074A43F0010333
:100E9000D362054B1B68044A43F08073136000F073
:100EA00085FE786211E000BF0044025800480258F5
:100EB0000CFCFFFF0700FFFF00F078FE02467B6A94
:100EC000D31A022B01D903238AE0474B1B6803F096
:100ED0000073002BF0D082E0434B1B68424A23F0A2
:100EE0008073136000F062FE786208E000F05EFE3E
:100EF00002467B6AD31A022B01D9032370E03A4BD6
:100F00001B6803F00073002BF0D168E0364B9B6A3E
:100F10003B61354B1B6BFB607B685B6A012B31D0FF
:100F20003B6903F003027B689B6A9A422AD13B69C2
:100F30001B0903F03F027B68DB6A9A4222D1FB68FF
:100F4000C3F308027B681B6B013B9A421AD1FB6812
:100F50005B0A03F07F027B685B6B013B9A4211D115
:100F6000FB681B0C03F07F027B689B6B013B9A4282
:100F700008D1FB681B0E03F07F027B68DB6B013B33
:100F80009A4201D001232BE0174B5B6BDB08C3F3C4
:100F90000C033B617B689B6C3A699A421FD0124BF1
:100FA000DB6A114A23F00103D36200F0FFFD78628F
:100FB00000BF00F0FBFD02467B6A9342F9D00A4B6A
:100FC0005A6B0A4B13407A68926CD200064913435D
:100FD0004B63054BDB6A044A43F00103D3620023F1
:100FE00018463037BD4680BD004402580700FFFF59
:100FF00080B586B000AF786039607B68002B01D186
:1010000001239CE18A4B1B6803F00F033A689A4264
:1010100010D9874B1B6823F00F0285493B681343A7
:101020000B60834B1B6803F00F033A689A4201D0B0
:10103000012384E17B681B6803F00403002B10D0BC
:101040007B681A697B4B9B6903F070039A4208D94D
:10105000784B9B6923F070027B681B6975491343C9
:101060008B617B681B6803F00803002B10D07B6842
:101070005A69704BDB6903F070039A4208D96D4BD3
:10108000DB6923F070027B685B696A491343CB61BB
:101090007B681B6803F01003002B10D07B689A69F3
:1010A000644BDB6903F4E0639A4208D9614BDB6966
:1010B00023F4E0627B689B695E491343CB617B68E4
:1010C0001B6803F02003002B10D07B68DA69594BB2
:1010D0001B6A03F070039A4208D9564B1B6A23F02F
:1010E00070027B68DB69534913430B627B681B68A2
:1010F00003F00203002B10D07B68DA684D4B9B692C
:1011000003F00F039A4208D94A4B9B6923F00F0260
:101110007B68DB68474913438B617B681B6803F07E
:101120000103002B55D0434B9B6923F470627B680D
:101130009B68404913438B617B685B68022B07D136
:101140003C4B1B6803F40033002B21D10123F6E054
:101150007B685B68032B07D1364B1B6803F0007379
:10116000002B15D10123EAE07B685B68012B07D1D6
:10117000304B1B6803F48073002B09D10123DEE0A0
:101180002C4B1B6803F00403002B01D10123D6E094
:10119000284B1B6923F007027B685B6825491343D2
:1011A0000B6100F003FD78610AE000F0FFFC0246ED
:1011B0007B69D31A41F28832934201D90323BEE0FE
:1011C0001C4B1B6903F038027B685B68DB009A42AA
:1011D000EBD17B681B6803F00203002B10D07B6807
:1011E000DA68144B9B6903F00F039A4208D2114B43
:1011F0009B6923F00F027B68DB680E4913438B6108
:101200000B4B1B6803F00F033A689A4214D2084B49
:101210001B6823F00F0206493B6813430B60044B25
:101220001B6803F00F033A689A4205D0012386E059
:1012300000200052004402587B681B6803F004033E
:10124000002B10D07B681A693F4B9B6903F0700339
:101250009A4208D23C4B9B6923F070027B681B6961
:10126000394913438B617B681B6803F00803002B2B
:1012700010D07B685A69344BDB6903F070039A42E3
:1012800008D2314BDB6923F070027B685B692E4921
:101290001343CB617B681B6803F01003002B10D055
:1012A0007B689A69284BDB6903F4E0639A4208D2B1
:1012B000254BDB6923F4E0627B689B692249134379
:1012C000CB617B681B6803F02003002B10D07B6888
:1012D000DA691D4B1B6A03F070039A4208D21A4B5D
:1012E0001B6A23F070027B68DB69174913430B62AA
:1012F00000F034F80246144B9B691B0A03F00F03FD
:101300001249CB5C03F01F0322FA03F33B610E4B3F
:101310009B6903F00F030D4AD35C03F01F033A6986
:1013200022FA03F30A4A13600A4A3B6913600A4B24
:101330001B68184600F0F0FB0346FB73FB7B184666
:101340001837BD4680BD00BF00440258B8460008AB
:1013500004000020000000200800002080B489B0B4
:1013600000AFB34B1B6903F03803182B00F2558113
:1013700001A252F823F000BFDD1300081B1600087D
:101380001B1600081B1600081B1600081B16000879
:101390001B1600081B160008031400081B16000883
:1013A0001B1600081B1600081B1600081B16000859
:1013B0001B1600081B160008091400081B1600085D
:1013C0001B1600081B1600081B1600081B16000839
:1013D0001B1600081B1600080F140008944B1B680E
:1013E00003F02003002B09D0914B1B68DB0803F0AE
:1013F0000303904A22FA03F3BB6111E18D4BBB61F9
:101400000EE18D4BBB610BE18C4BBB6108E1884B5E
:101410009B6A03F003037B61854B9B6A1B0903F006
:101420003F033B61824BDB6A03F00103FB60804BAF
:101430005B6BDB08C3F30C03FA6802FB03F307EEF4
:10144000903AF8EE677AC7ED027A3B69002B00F01C
:10145000E1807B69022B00F083807B69022B00F224
:10146000A1807B69002B03D07B69012B56D099E0CA
:101470006F4B1B6803F02003002B2DD06C4B1B68B7
:10148000DB0803F003036B4A22FA03F37B607B68FB
:1014900007EE903AF8EE676A3B6907EE903AF8EE8D
:1014A000677A86EEA77A624B1B6BC3F3080307EEDD
:1014B000903AF8EE676A97ED026ADFED615AC6EE80
:1014C000257A76EEA77AF7EE006A77EEA67A67EECF
:1014D000277AC7ED077A87E03B6907EE903AF8EE86
:1014E000677ADFED586A86EEA77A514B1B6BC3F320
:1014F000080307EE903AF8EE676A97ED026ADFEDAF
:10150000505AC6EE257A76EEA77AF7EE006A77EEA5
:10151000A67A67EE277AC7ED077A65E03B6907EEA2
:10152000903AF8EE677ADFED486A86EEA77A404B8C
:101530001B6BC3F3080307EE903AF8EE676A97ED6A
:10154000026ADFED3F5AC6EE257A76EEA77AF7EE0D
:10155000006A77EEA67A67EE277AC7ED077A43E04E
:101560003B6907EE903AF8EE677ADFED386A86EE6F
:10157000A77A2F4B1B6BC3F3080307EE903AF8EEE4
:10158000676A97ED026ADFED2E5AC6EE257A76EE8F
:10159000A77AF7EE006A77EEA67A67EE277AC7EDAC
:1015A000077A21E03B6907EE903AF8EE677ADFEDC3
:1015B000266A86EEA77A1E4B1B6BC3F3080307EE61
:1015C000903AF8EE676A97ED026ADFED1D5AC6EEB3
:1015D000257A76EEA77AF7EE006A77EEA67A67EEBE
:1015E000277AC7ED077A00BF114B1B6B5B0A03F02C
:1015F0007F0301333B603B6807EE903AB8EE677AB1
:10160000D7ED076AC6EE877AFCEEE77A17EE903AD6
:10161000BB6105E00023BB6102E0074BBB6100BF7B
:10162000BB6918462437BD465DF8047B704700BF90
:10163000004402580090D00300093D0040787D012D
:10164000000000460024744C0024744A20BCBE4BA9
:1016500080B489B000AF786039600023FB618E4BA5
:101660007B619EE13B681A680121FB6901FA03F383
:1016700013403B613B69002B00F090813B685B6845
:1016800003F00303012B05D03B685B6803F0030301
:10169000022B30D17B689B68BB61FB695B00032236
:1016A00002FA03F3DB43BA691340BB613B68DA68B3
:1016B000FB695B0002FA03F3BA691343BB617B6801
:1016C000BA699A607B685B68BB610122FB6902FAB8
:1016D00003F3DB43BA691340BB613B685B681B09DA
:1016E00003F00102FB6902FA03F3BA691343BB6119
:1016F0007B68BA695A603B685B6803F00303032B9D
:1017000009D13B685B6803F00303032B1BD13B68E3
:101710009B68012B17D07B68DB68BB61FB695B00B2
:10172000032202FA03F3DB43BA691340BB613B684F
:101730009A68FB695B0002FA03F3BA691343BB6161
:101740007B68BA69DA603B685B6803F00303022BCD
:1017500023D1FB69DA087B68083253F82230BB6179
:10176000FB6903F007039B000F2202FA03F3DB433C
:10177000BA691340BB613B681A69FB6903F0070350
:101780009B0002FA03F3BA691343BB61FB69DA08F1
:101790007B680832B96943F822107B681B68BB611B
:1017A000FB695B00032202FA03F3DB43BA691340CF
:1017B000BB613B685B6803F00302FB695B0002FAF4
:1017C00003F3BA691343BB617B68BA691A603B686B
:1017D0005B6803F44033002B00F0E0802F4BD3F81C
:1017E000F4302E4A43F00203C2F8F4302B4BD3F806
:1017F000F43003F00203FB60FB68294AFB699B0895
:10180000023352F82330BB61FB6903F003039B00F2
:101810000F2202FA03F3DB43BA691340BB617B6812
:10182000204A934252D07B681F4A934231D07B6852
:101830001E4A93422BD07B681D4A934225D07B6879
:101840001C4A93421FD07B681B4A934219D07B6885
:101850001A4A934213D07B68194A93420DD07B6891
:10186000184A934207D07B68174A934201D1092353
:101870002DE00A232BE0082329E0072327E0062395
:1018800025E0052323E0042321E003231FE00223B6
:101890001DE001231BE000BF8000005800440258F7
:1018A00000040058000002580004025800080258C2
:1018B000000C025800100258001402580018025878
:1018C000001C025800200258002402580023FA6924
:1018D00002F0030292009340BA691343BB61384996
:1018E000FB699B080233BA6941F823204FF0B043EB
:1018F0001B68BB613B69DB43BA691340BB613B6852
:101900005B6803F48013002B03D0BA693B6913436F
:10191000BB614FF0B042BB6913604FF0B0435B68EE
:10192000BB613B69DB43BA691340BB613B685B68E1
:1019300003F40013002B03D0BA693B691343BB6166
:101940004FF0B042BB6953607B695B68BB613B6928
:10195000DB43BA691340BB613B685B6803F4003347
:10196000002B03D0BA693B691343BB617B69BA6939
:101970005A607B691B68BB613B69DB43BA691340F2
:10198000BB613B685B6803F48033002B03D0BA690A
:101990003B691343BB617B69BA691A60FB69013318
:1019A000FB613B681A68FB6922FA03F3002B7FF4A2
:1019B00059AE00BF00BF2437BD465DF8047B7047B9
:1019C0000004005880B483B000AF78600B467B8081
:1019D00013467B707B78002B03D07A887B689A61F2
:1019E00003E07B881A047B689A6100BF0C37BD4610
:1019F0005DF8047B704780B485B000AF78600B461B
:101A00007B807B685B69FB607A88FB6813401A0403
:101A1000FB68D9437B880B401A437B689A6100BFFF
:101A20001437BD465DF8047B7047000080B584B074
:101A300000AF7860194BDB6803F00403042B0AD075
:101A4000164BDB6803F007037A689A4201D0012342
:101A50001FE000231DE0114BDB6823F007020F4954
:101A60007B681343CB6000F0A1F8F86009E000F058
:101A70009DF80246FB68D31AB3F57A7F01D901239A
:101A800007E0064B5B6803F40053B3F5005FEED14B
:101A9000002318461037BD4680BD00BF00480258DD
:101AA00080B582B000AF0320FEF79EFDFFF756FC25
:101AB0000246154B9B691B0A03F00F031349CB5CCD
:101AC00003F01F0322FA03F37B600F4B9B6903F0C3
:101AD0000F030E4AD35C03F01F037A6822FA03F364
:101AE0000B4A13600B4A7B6813600F2000F014F858
:101AF0000346002B01D0012302E002F071FC002319
:101B000018460837BD4680BD00440258B846000854
:101B1000040000200000002080B582B000AF786093
:101B2000154B1B78002B01D1012321E0134B1A68C0
:101B3000114B1B7819464FF47A73B3FBF1F3B2FBE8
:101B4000F3F31846FEF775FD0346002B01D0012381
:101B50000EE07B680F2B0AD8002279684FF0FF3027
:101B6000FEF74DFD064A7B681360002300E0012369
:101B700018460837BD4680BD0C000020000000203C
:101B80000800002080B400AF064B1B781A46064BB5
:101B90001B681344044A136000BFBD465DF8047B14
:101BA000704700BF0C0000203000002080B400AF60
:101BB000034B1B681846BD465DF8047B704700BFA9
:101BC0003000002080B400AF034B1B681B0C18468C
:101BD000BD465DF8047B70470010005C80B483B0A4
:101BE00000AF78603960074B5A687B68DB431A4066
:101BF00004493B6813434B6000BF0C37BD465DF89A
:101C0000047B70470004005880B483B000AF786054
:101C10007B6803F108027B685A607B684FF0FF32F3
:101C20009A607B6803F108027B68DA607B6803F1E5
:101C300008027B681A617B6800221A6000BF0C37BB
:101C4000BD465DF8047B704780B483B000AF786018
:101C50007B6800221A6100BF0C37BD465DF8047B2B
:101C6000704780B485B000AF786039603B681B680E
:101C7000BB60BB68B3F1FF3F03D17B681B69FB60AE
:101C80000CE07B680833FB6002E0FB685B68FB608C
:101C9000FB685B681B68BA689A42F6D2FB685A68B0
:101CA0003B685A603B685B683A689A603B68FA68D0
:101CB0009A60FB683A685A603B687A681A617B6888
:101CC0001B685A1C7B681A6000BF1437BD465DF85C
:101CD000047B704780B485B000AF78607B681B6977
:101CE000FB607B685B687A6892689A607B689B6837
:101CF0007A6852685A60FB685B687A689A4203D1D6
:101D00007B689A68FB685A607B6800221A61FB68EE
:101D10001B685A1EFB681A60FB681B68184614375C
:101D2000BD465DF8047B704780B586B002AF786031
:101D300039600123FB607B68BB60BB68002B08D166
:101D40000023009300234FF497723C49012002F0D6
:101D50008BFABB68002B5DD0BB68DB6B002B59D0C6
:101D6000BB681A6CBB68DB6B0021A3FB0223002B52
:101D700000D001210B46002B4CD102F057F8BB6874
:101D80001A68BB68DB6BB968096C01FB03F31A4482
:101D9000BB689A60BB6800229A63BB681A68BB681C
:101DA0005A60BB681A68BB68DB6B013BB968096C99
:101DB00001FB03F31A44BB68DA60BB68FF2283F8B7
:101DC0004420BB68FF2283F845203B68002B14D1D8
:101DD000BB681B69002B1AD0BB681033184600F093
:101DE000D9FF0346002B12D0154B4FF080521A60DA
:101DF000BFF34F8FBFF36F8F09E0BB6810331846F6
:101E0000FFF702FFBB6824331846FFF7FDFE02F020
:101E10003BF801E00023FB60FB68002B08D10023A6
:101E20000093002340F263120449012002F01CFADF
:101E3000FB6818461037BD4680BD00BF004500084E
:101E400004ED00E080B588B002AFF860B9607A6058
:101E50003B6000237B613B68002B08D1002300938B
:101E6000002340F277122349012002F0FDF9FB68BC
:101E7000002B2ED03B68002B2BD07B68002B02D090
:101E8000BB68002B25D07B68002B02D1BB68002BE0
:101E90001FD150233B613B69502B08D00023009396
:101EA000002340F289121349012002F0DDF93B6959
:101EB0003B687B617B69012283F8462097F82020EC
:101EC0007B69009313467A68B968F86800F014F8E3
:101ED0000BE07B69002B08D10023009300234FF413
:101EE000D0720449012002F0BFF97B691846183707
:101EF000BD4680BD0045000880B584B000AFF860E5
:101F0000B9607A60FB70BB68002B03D1BB69BA690A
:101F10001A6002E0BB697A681A60BB69FA68DA6322
:101F2000BB69BA681A640121B869FFF7FDFEBB6995
:101F3000FA7883F84C2000BF1037BD4680BD000002
:101F400080B58CB002AFF860B9607A6000237B6224
:101F5000FB683B623B6A002B08D1002300930023FF
:101F600040F29C526249012002F07EF9BB68002BCE
:101F700003D13B6A1B6C002B01D1012300E000233D
:101F8000002B08D10023009300234FF4B46258497A
:101F9000012002F069F901F02BF90346002B02D170
:101FA0007B68002B01D1012300E00023002B08D126
:101FB00000230093002340F2A5524D49012002F076
:101FC00053F901F033FF3B6A9B6BFB61FB69002B0C
:101FD0001FD0B968386A00F08FF8FB695A1E3B6A57
:101FE0009A633B6A1B69002B0FD03B6A103318467B
:101FF00000F0D0FE0346002B07D03E4B4FF080523E
:102000001A60BFF34F8FBFF36F8F01F03DFF0123C5
:1020100069E07B68002B03D101F036FF002362E00A
:102020007B6A002B06D107F11403184600F088FFE5
:1020300001237B6201F028FF00F08EFB01F0F6FE29
:102040003B6A93F844305BB2B3F1FF3F03D13B6A84
:10205000002283F844203B6A93F845305BB2B3F129
:10206000FF3F03D13B6A002283F8452001F00CFFBB
:102070003A1D07F114031146184600F077FF034696
:10208000002B23D1386A00F0AFF80346002B17D09D
:102090003B6A24337A681146184600F011FE386A0C
:1020A00000F050F800F066FB0346002B89D1114B7D
:1020B0004FF080521A60BFF34F8FBFF36F8F80E7EE
:1020C000386A00F03FF800F055FB7AE7386A00F014
:1020D00039F800F04FFB386A00F086F80346002B11
:1020E0003FF46FAF002318462837BD4680BD00BFC0
:1020F0000045000804ED00E080B582B000AF7860D4
:1021000039607B681B6C002B18D07B68DA687B68B1
:102110001B6C1A447B68DA607B68DA687B689B68B2
:102120009A4203D37B681A687B68DA607B68D96857
:102130007B681B6C1A46386802F0C8F900BF083784
:10214000BD4680BD80B584B000AF786001F06EFE02
:102150007B6893F84530FB7311E07B685B6A002B6A
:1021600012D07B682433184600F014FE0346002B7F
:1021700001D000F05FFFFB7B013BDBB2FB7397F903
:102180000F30002BE9DC00E000BF7B68FF2283F802
:10219000452001F079FE01F049FE7B6893F8443058
:1021A000BB7311E07B681B69002B12D07B68103376
:1021B000184600F0EFFD0346002B01D000F03AFF77
:1021C000BB7B013BDBB2BB7397F90E30002BE9DC24
:1021D00000E000BF7B68FF2283F8442001F054FE3A
:1021E00000BF1037BD4680BD80B584B000AF7860B9
:1021F00001F01CFE7B689B6B002B02D10123FB606E
:1022000001E00023FB6001F03FFEFB681846103739
:10221000BD4680BD80B586B002AF786039600023CE
:10222000BB607B68002B08D100230093002340F69D
:1022300015321C49012002F017F83B68002B24D00E
:102240000023FB601EE0184AFB68DB0013445B6858
:102250007A689A4205D1FB68DB00134A1344BB60DD
:1022600013E0BB68002B0AD10F4AFB6852F83330E9
:10227000002B04D1FB68DB000B4A1344BB60FB68F6
:102280000133FB60FB68072BDDD9BB68002B05D051
:10229000BB683A681A60BB687A685A6000BF10373A
:1022A000BD4680BD004500083400002080B586B0E2
:1022B00000AFF860B9607A60FB687B6101F0B6FD41
:1022C0007B6993F844305BB2B3F1FF3F03D17B6984
:1022D000002283F844207B6993F845305BB2B3F168
:1022E000FF3F03D17B69002283F8452001F0CCFD3C
:1022F0007B699B6B002B06D17B6924337A68B968B4
:10230000184600F001FD7869FFF71CFF00BF183781
:10231000BD4680BD80B58CB004AFF860B9607A600E
:102320003B60FB6A002B08D100230093002340F29E
:1023300043222649012001F097FF3B6B002B08D177
:102340000023009300234FF411722049012001F073
:102350008BFF5C237B617B695C2B08D0002300939F
:1023600000234FF413721949012001F07DFF7B69AE
:102370003B6B002B23D0FB6A002B20D03B6BFB6117
:102380005C220021F86902F074F8FB69FA6A1A63AA
:10239000FB69022283F8592000230393FB6902930F
:1023A00007F118030193BB6A00933B687A68B96828
:1023B000F86800F00DF8F86900F096F801E00023E5
:1023C000BB61BB6918462037BD4680BD4845000843
:1023D00080B588B002AFF860B9607A603B60BB6AD4
:1023E000186B7B689B001A46A52102F042F8BB6A75
:1023F0001A6B79686FF040430B449B0013443B61B8
:102400003B6923F007033B613B6903F00703002BA3
:1024100008D000230093002340F2613231490120AB
:1024200001F022FFBB68002B1ED000237B6112E06D
:10243000BA687B6913441978BA6A7B6913443433E8
:102440000A461A70BA687B6913441B78002B06D0C1
:102450007B6901337B617B690F2BE9D900E000BF09
:10246000BB6A002283F843203B6A372B08D900233C
:102470000093002340F296321A49012001F0F4FE45
:102480003B6A372B01D937233B62BB6A3A6ADA626F
:10249000BB6A3A6ADA64BB6A04331846FFF7D4FBB6
:1024A000BB6A18331846FFF7CFFBBB6ABA6A1A61DA
:1024B0003B6AC3F13802BB6A9A61BB6ABA6A5A6264
:1024C0003A68F968386901F06FFB0246BB6A1A6026
:1024D0007B6A002B02D07B6ABA6A1A6000BF183789
:1024E000BD4680BD4845000880B584B000AF786027
:1024F00001F09CFC414B1B680133404A1360404B88
:102500001B68002B09D13E4A7B6813603B4B1B685C
:10251000012B10D100F0B2FD0DE03A4B1B68002BEF
:1025200009D1374B1B68DA6A7B68DB6A9A4202D8AA
:10253000334A7B681360344B1B680133324A1360A3
:10254000314B1A687B685A647B68DA6A2F4B1B68C8
:102550009A4203D97B68DB6A2C4A13607B68DA6A8B
:102560002B4913469B0013449B000B4404331B6808
:10257000FB607B68FA689A60FB689A687B68DA603F
:10258000FB689B687A6804325A607B681A1DFB6896
:102590009A607B68DA6A13469B0013449B001C4ACE
:1025A0001A447B685A617B68DA6A194913469B00B2
:1025B00013449B000B441B68591C154813469B0091
:1025C00013449B000344196001F05EFC0D4B1B6833
:1025D000002B0ED00A4B1B68DA6A7B68DB6A9A42D2
:1025E00007D20C4B4FF080521A60BFF34F8FBFF3EE
:1025F0006F8F00BF1037BD4680BD00BF480500206B
:1026000074000020540500206405002050050020BF
:102610007800002004ED00E080B586B002AF78605D
:102620000023FB607B68002B15D0124B1B68002B2E
:1026300008D00023009300234FF4A4620E49012028
:1026400001F012FE00F088F80021786800F0EEFD3D
:1026500000F090F8F860FB68002B07D1074B4FF0B3
:1026600080521A60BFF34F8FBFF36F8F00BF1037D8
:10267000BD4680BD700500204845000804ED00E01F
:1026800080B58AB004AF0023FB600023BB603A1D15
:1026900007F1080107F10C03184601F0A1F9796868
:1026A000BB68FA68029201930023009300230A4654
:1026B00021492248FFF72EFE0346214A1360204B92
:1026C0001B68002B02D001237B6101E000237B61AA
:1026D0007B69012B02D100F017FE78617B69012B29
:1026E00016D14FF0500383F31188BFF36F8FBFF300
:1026F0004F8F3B6100BF134B4FF0FF321A60124BFC
:1027000001221A60114B00221A6001F0DBFA0CE082
:102710007B69B3F1FF3F08D10023009300234FF4FE
:1027200002620B49012001F09FFD0A4B1B6800BFAC
:102730001837BD4680BD00BF904500084D300008E9
:102740006C05002068050020540500204C05002081
:1027500048450008C846000880B400AF044B1B6819
:102760000133034A136000BFBD465DF8047B704728
:102770007005002080B588B002AF00237B61002384
:102780003B61704B1B68002B08D100230093002392
:1027900040F693026C49012001F066FD01F046FB12
:1027A000684B1B68013B674A1360664B1B68002B34
:1027B00040F0C180654B1B68002B00F0BC808BE0B3
:1027C000634BDB68DB687B617B699B6ABB607B6911
:1027D000DB697A69126A9A607B691B6A7A69D269D5
:1027E0005A60BB685A687B6918339A4203D17B6987
:1027F0001A6ABB685A607B6900229A62BB681B68D0
:102800005A1EBB681A607B695B697B607B699B6849
:102810007A69D2689A607B69DB687A6992685A60E3
:102820007B685A687B6904339A4203D17B69DA6812
:102830007B685A607B6900225A617B681B685A1E5C
:102840007B681A607B69DA6A424B1B689A4203D93B
:102850007B69DB6A3F4A13607B69DA6A3E4913464B
:102860009B0013449B000B4404331B683B607B6953
:102870003A689A603B689A687B69DA603B689B6853
:102880007A6904325A607B691A1D3B689A607B69D9
:10289000DA6A13469B0013449B002F4A1A447B6953
:1028A0005A617B69DA6A2C4913469B0013449B00EA
:1028B0000B441B68591C284813469B0013449B007B
:1028C000034419607B69DA6A244B1B68DB6A9A420D
:1028D00002D9234B01221A601D4B1B68002B7FF489
:1028E0006FAF7B69002B01D000F066FC1D4B1B68AD
:1028F000FB60FB68002B10D000F048F80346002B6B
:1029000002D0174B01221A60FB68013BFB60FB6899
:10291000002BF1D1134B00221A60114B1B68002BC6
:1029200009D001233B61104B4FF080521A60BFF376
:102930004F8FBFF36F8F01F0A7FA3B691846183726
:10294000BD4680BD700500204845000848050020B0
:1029500008050020500500207800002074000020A9
:102960005C0500205805002004ED00E080B483B031
:1029700000AF054B1B687B607B6818460C37BD4673
:102980005DF8047B704700BF4C05002080B58AB01D
:1029900002AF0023FB617D4B1B68002B40F0EB80F6
:1029A0007B4B1B680133BB61794ABB691360BB6910
:1029B000002B1ED1774B1B681B68002B08D000230F
:1029C0000093002340F6F4227349012001F04CFCEF
:1029D000704B1B687B61714B1B686E4A13606F4ABA
:1029E0007B6913606E4B1B6801336D4A136000F006
:1029F000E3FB6C4B1B68BA699A42C0F0A780654B39
:102A00001B681B68002B04D1664B4FF0FF321A6025
:102A10009CE0604B1B68DB68DB683B613B695B6883
:102A2000FB60BA69FB689A4203D25E4AFB68136096
:102A30008CE03B695B69BB603B699B683A69D26823
:102A40009A603B69DB683A6992685A60BB685A6869
:102A50003B6904339A4203D13B69DA68BB685A6028
:102A60003B6900225A61BB681B685A1EBB681A602A
:102A70003B699B6A002B1ED03B699B6A7B603B696C
:102A8000DB693A69126A9A603B691B6A3A69D269E2
:102A90005A607B685A683B6918339A4203D13B6994
:102AA0001A6A7B685A603B6900229A627B681B68DD
:102AB0005A1E7B681A603B69DA6A3B4B1B689A4274
:102AC00003D93B69DB6A384A13603B69DA6A3749E4
:102AD00013469B0013449B000B4404331B683B606C
:102AE0003B693A689A603B689A683B69DA603B6880
:102AF0009B683A6904325A603B691A1D3B689A60C8
:102B00003B69DA6A13469B0013449B00274A1A4428
:102B10003B695A613B69DA6A244913469B001344B6
:102B20009B000B441B68591C204813469B00134410
:102B30009B00034419603B69DA6A1D4B1B68DB6A22
:102B40009A427FF65CAF0123FB6158E7184B1B6884
:102B5000DA6A164913469B0013449B000B441B681A
:102B6000012B01D90123FB61124B1B68002B07D0FD
:102B70000123FB6104E0104B1B6801330E4A136014
:102B8000FB6918462037BD4680BD00BF7005002098
:102B90004C050020000500204845000804050020E1
:102BA0006005002068050020500500207800002006
:102BB000740000205C0500205805002080B586B018
:102BC00002AF394B1B68002B03D0384B01221A602F
:102BD00065E0364B00221A60354B1B681B6BBB60EF
:102BE0004FF0A5337B60BB681B687A689A4211D1AD
:102BF000BB6804331B687A689A420BD1BB68083300
:102C00001B687A689A4205D1BB680C331B687A68E6
:102C10009A4208D0264B1A68254B1B683433194654
:102C2000104601F057FB234B1B68FB600EE0FB686E
:102C3000002B08D100230093002340F633421E49A5
:102C4000012001F011FBFB68013BFB601B49FA68A6
:102C500013469B0013449B000B441B68002BE6D0DB
:102C6000FA6813469B0013449B00144A13443B60CC
:102C70003B685B685A683B685A603B685A683B68C7
:102C800008339A4203D13B68DA683B685A603B6874
:102C90005B68DB68064A1360064AFB68136000BF86
:102CA0001037BD4680BD00BF700500205C050020C8
:102CB00074000020500500204845000878000020DE
:102CC00080B584B002AF786039607B68002B08D192
:102CD00000230093002340F64B420949012001F0F4
:102CE000C3FA084B1B68183319467868FEF7B9FF1A
:102CF0000121386800F09AFA00BF0837BD4680BD50
:102D0000484500087400002080B588B002AFF86024
:102D1000B9607A60FB68002B08D100230093002380
:102D200040F681421949012001F09EFAFB685B6878
:102D30007B61174B1B687A69DA61154B1B687A69EE
:102D400092681A62124B1A687B699B6818325A6043
:102D50000F4B1B6803F118027B699A600C4B1B68D0
:102D6000FA689A62FB681B685A1CFB681A607B68E9
:102D7000002B02D04FF0FF33BB607968B86800F0D9
:102D800055FA00BF1837BD4680BD00BF4845000852
:102D90007400002080B58AB002AF78607B68DB6881
:102DA000DB68BB61BB69002B08D1002300930023C3
:102DB00040F6B1425B49012001F056FABB699B6ABB
:102DC0007B61BB69DB69BA69126A9A60BB691B6A7D
:102DD000BA69D2695A607B695A68BB6918339A42EA
:102DE00003D1BB691A6A7B695A60BB6900229A6287
:102DF0007B691B685A1E7B691A604B4B1B68002B52
:102E00005FD1BB695B69FB60BB699B68BA69D268CB
:102E10009A60BB69DB68BA6992685A60FB685A6855
:102E2000BB6904339A4203D1BB69DA68FB685A6014
:102E3000BB6900225A61FB681B685A1EFB681A6056
:102E4000BB69DA6A394B1B689A4203D9BB69DB6AF2
:102E5000364A1360BB69DA6A354913469B0013444E
:102E60009B000B4404331B68BB60BB69BA689A6063
:102E7000BB689A68BB69DA60BB689B68BA69043250
:102E80005A60BB691A1DBB689A60BB69DA6A13464F
:102E90009B0013449B00264A1A44BB695A61BB69D4
:102EA000DA6A234913469B0013449B000B441B68BA
:102EB000591C1F4813469B0013449B000344196090
:102EC0001BE01C4B5B683B61BB693A69DA613B699B
:102ED0009A68BB691A623B699B68BA6918325A6082
:102EE000BB6903F118023B699A60BB69114A9A6297
:102EF000104B1B6801330F4A1360BB69DA6A0E4B33
:102F00001B68DB6A9A4205D90123FB610B4B012246
:102F10001A6001E00023FB61FB6918462037BD46BB
:102F200080BD00BF48450008700500205005002006
:102F30007800002008050020740000205C050020B7
:102F400080B483B000AF7860064B1A687B681A6063
:102F5000054B1A687B685A6000BF0C37BD465DF8A8
:102F6000047B7047600500204C05002080B588B0C8
:102F700002AF786039607B68002B08D10023009392
:102F8000002340F62C522849012001F06DF93B68DE
:102F9000002B08D100230093002340F62D52224934
:102FA000012001F061F900F041FF204B1B683B61FB
:102FB0007B685B683A69D31AFB603B681B68B3F1B6
:102FC000FF3F02D100237B6126E07B681A68184B23
:102FD0001B689A420AD07B685B683A699A4205D3BB
:102FE00001237B613B6800221A6015E03B681B6887
:102FF000FA689A420BD23B681A68FB68D21A3B689F
:103000001A607868FFF79CFF00237B6104E03B684F
:1030100000221A6001237B6100F036FF7B691846AD
:103020001837BD4680BD00BF484500084C0500204C
:103030006005002080B400AF034B01221A6000BF7E
:10304000BD465DF8047B70475C05002080B582B00A
:1030500000AF786000F052F8064B1B68012BF9D9DD
:10306000054B4FF080521A60BFF34F8FBFF36F8F45
:10307000F0E700BF7800002004ED00E080B582B0EA
:1030800000AF00237B600CE07A6813469B0013447A
:103090009B00124A13441846FEF7B6FD7B680133C5
:1030A0007B607B68372BEFD90D48FEF7ADFD0D48EF
:1030B000FEF7AAFD0C48FEF7A7FD0C48FEF7A4FD9D
:1030C0000B48FEF7A1FD0B4B054A1A600A4B054A57
:1030D0001A6000BF0837BD4680BD00BF78000020E1
:1030E000D8040020EC040020080500201C05002066
:1030F00034050020000500200405002080B582B0C2
:1031000000AF19E000F092FE104BDB68DB687B60DB
:103110007B6804331846FEF7DDFD0D4B1B68013B51
:103120000B4A13600B4B1B68013B0A4A136000F00B
:10313000ABFE786800F010F8064B1B68002BE1D15D
:1031400000BF00BF0837BD4680BD00BF1C05002082
:10315000480500203005002080B584B002AF7860BB
:103160007B6893F85930002B08D17B681B6B18469D
:1031700000F06AFC786800F067FC16E07B6893F862
:103180005930012B03D1786800F05EFC0DE07B68BC
:1031900093F85930022B08D000230093002340F607
:1031A000D9720449012001F05FF800BF0837BD461D
:1031B00080BD00BF4845000880B400AF0A4B1B68C3
:1031C0001B68002B04D1094B4FF0FF321A6005E059
:1031D000054B1B68DB681B68044A136000BFBD46D3
:1031E0005DF8047B704700BF0005002068050020E3
:1031F00080B483B000AF0B4B1B68002B02D10123BE
:103200007B6008E0084B1B68002B02D102237B6027
:1032100001E000237B607B6818460C37BD465DF8F3
:10322000047B7047540500207005002080B586B0EF
:1032300000AF786039602E4B1B687B612D4B1B689B
:1032400004331846FEF746FD7B68B3F1FF3F24D1F7
:103250003B68002B21D0284B5B683B61254B1B68EA
:103260003A699A60234B1B683A699268DA60214B8D
:103270001A683B699B6804325A601E4B1B681A1D12
:103280003B699A601B4B1B681B4A5A611A4B1B68AF
:103290000133194A136000BF26E07A697B68134442
:1032A000FB60144B1B68FA685A60FA687B699A42A3
:1032B00009D2124B1A680F4B1B680433194610468B
:1032C000FEF7CFFC10E00E4B1A680A4B1B68043364
:1032D00019461046FEF7C5FC0A4B1B68FA689A426D
:1032E00002D2084AFB68136000BF1837BD4680BD94
:1032F0004C05002074000020340500200405002047
:10330000000500206805002080B588B004AF0023C8
:10331000FB6000F07BFA1B4B1B68002B20D00023C6
:10332000BB6000237B603A46391D07F1080318464D
:1033300000F070FB39687B68BA680292019302233F
:10334000009300230A4610491048FEF7E3FF0346A6
:103350000F4A13600E4B1B68002B01D00123FB604A
:10336000FB68002B08D100230093002340F21912C0
:103370000849012000F078FFFB6818461037BD4669
:1033800080BD00BFA4050020984500083D3400081A
:10339000A8050020A045000880B584B000AFF86003
:1033A000B9607A6008E0FB689B69BA681344BB6047
:1033B000FB681B6AF8689847FB689A69BB68D11874
:1033C000BB687A68F86800F0DFF80346002BEAD1A2
:1033D00000BF00BF1037BD4680BD000080B584B07F
:1033E00000AF78603960144B1B68DB68DB68FB60FA
:1033F000FB6804331846FEF76DFCFB6893F8283031
:1034000003F00403002B05D03A687968F868FFF7E9
:10341000C3FF08E0FB6893F8283023F00103DAB219
:10342000FB6883F82820FB681B6AF868984700BF90
:103430001037BD4680BD00BF9C05002080B584B01C
:1034400000AF786007F10803184600F059F8F860FB
:10345000BB681946F86800F005F800F0D7F800BF1F
:10346000F0E7000080B584B000AF78603960FFF706
:1034700073F907F10803184600F066F8F860BB68B6
:10348000002B30D13B68002B0AD17A68FB689A4246
:1034900006D8FFF76FF9F9687868FFF79FFF24E017
:1034A0003B68002B08D0134B1B681B68002B01D115
:1034B000012300E000233B600F4B18687A68FB682B
:1034C000D31A3A681946FEF7F1FEFFF753F903469F
:1034D000002B0AD1094B4FF080521A60BFF34F8F77
:1034E000BFF36F8F01E0FFF745F900BF1037BD460E
:1034F00080BD00BFA0050020A405002004ED00E071
:1035000080B485B000AF78600E4B1B681B68002B41
:1035100001D1012200E000227B681A607B681B68F1
:10352000002B05D1074B1B68DB681B68FB6001E0C3
:103530000023FB60FB6818461437BD465DF8047B2A
:10354000704700BF9C05002080B584B000AF786054
:10355000FFF70CFAF8600B4B1B68FA689A4205D229
:1035600000F02EF97B6801221A6002E07B680022DD
:103570001A60044AFB681360FB6818461037BD46A2
:1035800080BD00BFAC05002080B586B000AFF860FC
:10359000B9607A603B6000237B61FB68BA685A605F
:1035A000FB68FA681A61BA687B689A4212D87A682E
:1035B0003B68D21AFB689B699A4202D301237B6164
:1035C0001BE0104B1A68FB68043319461046FEF7DF
:1035D00048FB12E07A683B689A4206D2BA683B68B8
:1035E0009A4202D301237B6107E0074B1A68FB680C
:1035F000043319461046FEF734FB7B69184618372A
:10360000BD4680BDA00500209C05002080B58AB085
:1036100002AFC0E07B68002B16DA3B1D0433FB6170
:10362000FB69002B08D100230093002340F22132D4
:103630006149012000F018FEFB691B68FA695068B7
:10364000FA699268114698477B68002BC0F2A38004
:10365000FB68BB61BB695B69002B04D0BB690433A9
:103660001846FEF737FB3B461846FFF76DFF7861BB
:103670007B68013B082B00F28B8001A252F823F0FB
:10368000A5360008A53600080D37000821370008C8
:1036900067370008A5360008A53600080D37000872
:1036A00021370008BB6993F8283043F00103DAB2F0
:1036B000BB6983F82820BA68BB699B69D118BB68CD
:1036C0007A69B869FFF760FF0346002B62D0BB69D7
:1036D00093F8283003F00403002B09D0BA68BB69C3
:1036E0009B6913447A691946B869FFF755FE08E0EB
:1036F000BB6993F8283023F00103DAB2BB6983F881
:103700002820BB691B6AB869984743E0BB6993F8F6
:10371000283023F00103DAB2BB6983F828203AE0AD
:10372000BB6993F8283043F00103DAB2BB6983F830
:103730002820BA68BB699A61BB699B69002B08D1D4
:103740000023009300234FF45D721B49012000F019
:103750008BFDBB699A697B69D1187B697A69B86905
:10376000FFF712FF17E0BB6993F8283003F002035C
:10377000002B03D1B86900F067F90CE0BB6993F83E
:10378000283023F00103DAB2BB6983F8282002E075
:1037900000BF00E000BF094B1B68391D002218461E
:1037A000FEF7CEFB0346002B7FF434AF00BF00BF13
:1037B0002037BD4680BD00BFA0450008A4050020FD
:1037C00080B582B000AF09E00E4B1B68DB681B6858
:1037D0003B604FF0FF313868FFF700FE094B1B6874
:1037E0001B68002BF0D1074B1B687B60064B1B68E6
:1037F000044A1360044A7B68136000BF0837BD4663
:1038000080BD00BF9C050020A005002080B582B0CF
:1038100002AF00F00BFB154B1B68002B20D11448A6
:10382000FEF7F2F91348FEF7EFF9134B104A1A604E
:10383000124B104A1A6000230093114B114A1021B9
:103840000A20FEF7FFFA0346084A1360074B1B687D
:10385000002B05D0054B1B680B491846FEF7DAFC18
:1038600000F012FB00BFBD4680BD00BFA4050020D4
:1038700074050020880500209C050020A00500207C
:1038800050060020B0050020EC45000880B483B04D
:1038900000AF03463960FB80B7F90630002B0ADB26
:1038A0003B68DAB20C49B7F906301201D2B20B44C8
:1038B00083F800230AE03B68DAB20849FB8803F08A
:1038C0000F03043B1201D2B20B441A7600BF0C372F
:1038D000BD465DF8047B704700E100E000ED00E0CC
:1038E00080B500AF00216FF00400FFF7CFFF00BFED
:1038F00080BD80B586B000AF00237B61EFF3058308
:10390000FB60FB68002B02D001237B6113E0FFF713
:103910006FFC38613B69012B0DD0EFF31083BB6066
:10392000BB68002B05D1EFF311837B607B68002B14
:1039300001D001237B617B6918461837BD4680BDE5
:1039400080B582B000AFFFF7D4FF0346002B03D051
:103950006FF005037B6012E0FFF74AFC38603B68BC
:10396000012B09D1084B1B68002B05D1064B012206
:103970001A6000237B6002E04FF0FF337B607B68BE
:1039800018460837BD4680BDA006002080B582B02D
:1039900000AFFFF7AEFF0346002B03D06FF0050327
:1039A0007B6016E0FFF724FC38603B68012B0DD1EB
:1039B0000A4B1B68012B09D1FFF792FF074B02222C
:1039C0001A60FEF75DFE00237B6002E04FF0FF33DC
:1039D0007B607B6818460837BD4680BDA006002086
:1039E00080B485B000AFF860B9607A60FB68074AC0
:1039F0001A60BB68064A1A607B6880221A6000BFA2
:103A00001437BD465DF8047B704700BFA406002054
:103A10000007002080B485B000AFF860B9607A601C
:103A2000FB68074A1A60BB68064A1A607B684FF455
:103A300080721A6000BF1437BD465DF8047B704782
:103A4000000900205C09002080B586B002AF7860D4
:103A50007B68FB607B68002B41D008235B42FA68DF
:103A60001344FB60FB68BB60BB685B68002B08DB32
:103A700000230093002340F241121B49012000F073
:103A8000F3FBBB681B68002B08D0002300930023C6
:103A90004FF4A1721449012000F0E6FBBB685B689B
:103AA000002B1CDABB681B68002B18D1BB685B6855
:103AB00023F00042BB685A60FEF74EFEBB685A68AE
:103AC0000A4B1B681344094A1360B86800F012F8E7
:103AD000074B1B680133064A1360FEF74BFE00BF1D
:103AE0001037BD4680BD00BFF4450008680D0020BA
:103AF0006C0D002080B485B000AF7860284BFB606F
:103B000002E0FB681B68FB60FB681B687A689A42EE
:103B1000F7D8FB68BB60FB685B68BA6813447A68D7
:103B20009A4208D1FB685A687B685B681A44FB6854
:103B30005A60FB687B607B68BB607B685B68BA68C7
:103B40001A44FB681B689A4218D1FB681A68154B27
:103B50001B689A420DD07B685A68FB681B685B68DB
:103B60001A447B685A60FB681B681A687B681A6095
:103B700008E00C4B1A687B681A6003E0FB681A685F
:103B80007B681A60FA687B689A4202D0FB687A68A0
:103B90001A6000BF1437BD465DF8047B704700BF54
:103BA0005C0D0020640D002080B485B000AFF8608B
:103BB000B9607A60FB68043BFB60FB684FF0807281
:103BC0001A60FB68043BFB60BB6823F00102FB68E2
:103BD0001A60FB68043BFB600C4AFB681A60FB68D8
:103BE000143BFB607A68FB681A60FB68043BFB606F
:103BF000FB686FF002021A60FB68203BFB60FB6809
:103C000018461437BD465DF8047B7047113C000828
:103C100080B584B002AF00233B60104B1B68B3F14A
:103C2000FF3F07D0002300930023EB220C49012023
:103C300000F01AFB4FF0500383F31188BFF36F8F2E
:103C4000BFF34F8F7B6000BF00BF3B68002BFCD0F1
:103C500000BF00BF0837BD4680BD00BF1000002078
:103C600050460008000000000000000000000000B6
:103C7000074B19680868B0E8F04F80F30988BFF374
:103C80006F8F4FF0000080F311887047AFF3008012
:103C90007400002000BF00BF08480068006880F37F
:103CA00008884FF0000080F3148862B661B6BFF355
:103CB0004F8FBFF36F8F00DF00BF000008ED00E003
:103CC00000BF00BF80B586B002AF4E4B1B684E4AA6
:103CD000934208D10023009300234FF497724B497D
:103CE000012000F0C1FA474B1B68494A934208D1B2
:103CF00000230093002340F22F124449012000F0DA
:103D0000B3FA00237B60434BFB60FB681B78DBB29C
:103D1000FB72FB68FF221A70FB681B78DBB2FB703A
:103D2000FB78DBB203F05003DAB23B4B1A703A4B2C
:103D30001B78002B08D10023009300234FF4A872B6
:103D40003249012000F090FAFB78DBB2DB4303F04C
:103D50005003002B11D00023009300234FF4AA72CC
:103D60002A49012000F080FA07E07B6801337B607C
:103D7000FB78DBB25B00DBB2FB70FB78DBB203F0FD
:103D80008003802BF1D07B68082B03D1234B0022CA
:103D90001A6004E07B68C3F10703204A13601F4BDD
:103DA0001B681B021D4A13601C4B1B6803F4E06375
:103DB0001A4A1360FB7ADAB2FB681A70184B1B6858
:103DC000174A43F47F031360154B1B68144A43F0F2
:103DD0007F43136000F0DAF8124B00221A6000F003
:103DE000F9F8114B1B68104A43F040431360FFF78A
:103DF00053FFFEF7E3FEFFF70BFF002318461037D3
:103E0000BD4680BD00ED00E071C20F415046000884
:103E100070C20F4100E400E0700D0020740D00201E
:103E200020ED00E01000002034EF00E080B584B009
:103E300002AF4FF0500383F31188BFF36F8FBFF3CE
:103E40004F8F7B6000BF0D4B1B6801330B4A136023
:103E50000A4B1B68012B0DD1094B1B68DBB2002BF1
:103E600008D000230093002340F2BB120549012033
:103E700000F0FAF900BF0837BD4680BD10000020F1
:103E800004ED00E05046000880B584B002AF104B4E
:103E90001B68002B08D10023009300234FF4E1722C
:103EA0000C49012000F0E0F9094B1B68013B084A6E
:103EB0001360074B1B68002B05D100237B607B68D8
:103EC00083F3118800BF00BF0837BD4680BD00BF27
:103ED0001000002050460008000000000000000014
:103EE000EFF30980BFF36F8F154B1A681EF0100FA8
:103EF00008BF20ED108A20E9F04F10602DE909007D
:103F00004FF0500080F31188BFF34F8FBFF36F8FD6
:103F1000FEF754FE4FF0000080F3118809BC1968C9
:103F20000868B0E8F04F1EF0100F08BFB0EC108A20
:103F300080F30988BFF36F8F704700BFAFF3008035
:103F40007400002000BF00BF80B582B000AF4FF00A
:103F5000500383F31188BFF36F8FBFF34F8F7B60E4
:103F600000BFFEF713FD0346002B03D0064B4FF0B6
:103F700080521A6000233B603B6883F3118800BFC6
:103F800000BF0837BD4680BD04ED00E080B400AF3F
:103F90000B4B00221A600B4B00221A600A4B1B6865
:103FA0000A4AA2FB03239B09094A013B1360044B05
:103FB00007221A6000BFBD465DF8047B704700BF52
:103FC00010E000E018E000E000000020D34D621097
:103FD00014E000E0DFF80C00016841F470010160BA
:103FE0007047000088ED00E000BF00BF80B500AF63
:103FF00000F0DEF8FDF754FD00F01CF900F006F8C3
:1040000000F06EF800F05EF900BFFDE780B59CB0EF
:1040100000AF07F124034C220021184600F029FAD2
:104020003B1D20220021184600F023FA0220FDF754
:10403000FDFC00233B60284BDB6A274A23F0010389
:10404000D362254BDB6A03F001033B60234B9B6982
:1040500023F44043214A43F4804393611F4B9B69FF
:1040600003F440433B603B6800BF1C4B9B6903F477
:104070000053B3F5005FF8D102237B6201233B6359
:1040800040237B630023BB6407F124031846FCF73D
:1040900055FB0346002B01D000F0B6F83F237B60B0
:1040A0000023BB600023FB6000233B6100237B6196
:1040B0000023BB610023FB6100233B623B1D012108
:1040C0001846FCF795FF0346002B01D000F09CF842
:1040D00000BF7037BD4680BD00040058004802583C
:1040E00080B588B000AF07F10C0300221A605A6057
:1040F0009A60DA601A612B4BD3F8E030294A43F01A
:104100001003C2F8E030274BD3F8E03003F010037F
:10411000BB60BB68234BD3F8E030224A43F08003F6
:10412000C2F8E0301F4BD3F8E03003F080037B602F
:104130007B681C4BD3F8E0301A4A43F00103C2F805
:10414000E030184BD3F8E03003F001033B603B68EC
:10415000002202211448FDF735FC0823FB604FF4D0
:1041600088133B6100237B6107F10C0319460F485C
:10417000FDF76EFA0223FB6001233B6100237B61A4
:104180000023BB6107F10C0319460748FDF760FAED
:1041900000214FF00070FDF721FD00BF2037BD4624
:1041A00080BD00BF004402580000025800100258B1
:1041B00080B584B000AF3B4600221A605A609A6016
:1041C000DA60FCF743FA01233B7000237B70002385
:1041D0007B601F233B7287237B720023BB7200230B
:1041E000FB7201233B7301237B730023BB7300230A
:1041F000FB733B461846FCF761FA0420FCF73EFAD5
:1042000000BF1037BD4680BD80B400AF72B600BF9E
:1042100000BFFDE780B400AF054B1B6803F001034E
:10422000002B00D000BE00BFBD465DF8047B704788
:10423000F0ED00E080B400AF094BDB68084A43F0C2
:104240008073D360074B00225A60064B1B68054AF7
:1042500043F00103136000BFBD465DF8047B704767
:10426000F0ED00E0001000E080B584B000AFB96070
:104270007A603B600346FB7372B600BF094AFB7B62
:104280001370084ABB685360064A7B689360054A0E
:104290003B68D360034ABB691361FFF7BBFF00BFF4
:1042A000FDE700BF780D002080B500AF00F026F8D4
:1042B000FFF746FB00BF80BD80B500AFFFF766FB90
:1042C00000BF80BD80B500AFFFF7EEFFFFF7F4FF42
:1042D00000BF80BD80B584B002AF786039607B6874
:1042E00000933B68392204490320FFF7BDFF00BF5C
:1042F0000837BD4680BD00BFCC460008F0B589B088
:1043000004AF164BFB601FE0FB685D68FB681E682E
:10431000FB681B697B60FB6899683960FB68DB6937
:10432000FA68D268F9684969F8688469029101926B
:1043300000933B687A6831462846FDF7EBFF034659
:104340002360FB682833FB60FB68054A9342DBD39C
:1043500000BF00BF1437BD46F0BD00BF04470008D2
:104360005447000880B582B000AF7860022104484D
:10437000FDF741FB4FF4FA70FEF74EF900BFF5E789
:104380000000025880B483B000AF786000BFFDE742
:1043900080B400AF00BFFDE780B400AF00BFFDE711
:1043A00080B400AF00BFFDE780B400AF00BFFDE701
:1043B00080B400AF00BFFDE780B400AF00BFBD46D2
:1043C0005DF8047B704780B500AFFDF7DBFBFEF7BF
:1043D0000FFF0346012B01D0FFF7B6FD00BF80BDE4
:1043E00080B582B000AF0C4BD3F8F4300A4A43F0EA
:1043F0000203C2F8F430084BD3F8F43003F00203A0
:104400007B607B6800220F216FF00100FCF7F7F85A
:1044100000BF0837BD4680BD00440258DFF838D0E1
:10442000FCF724F8FBF782FF0C480D490D4A0023E6
:1044300002E0D458C4500433C4188C42F9D30A4A59
:104440000A4C002301E013600432A242FBD300F0C7
:1044500019F8FFF7CBFDFEE7000002200000002066
:10446000140000205C470008140000204C2E00209F
:10447000FEE702440346934200D1704703F8011B54
:10448000F9E7000070B50D4B0D4D5B1B9C1000262D
:10449000A64209D100F028F80A4D0B4B5B1B9C107B
:1044A0000026A64205D170BD55F8043B9847013659
:1044B000EEE755F8043B98470136F2E75447000809
:1044C0005447000854470008584700080A449142DE
:1044D00000F1FF3300D1704710B511F8014B03F81C
:1044E000014F9142F9D110BDF8B500BFF8BC08BC2E
:1044F0009E467047F8B500BFF8BC08BC9E467047A2
:104500002F55736572732F69676F72343034696B1E
:104510002F4837353056422F4D6964646C6577619A
:104520007265732F54686972645F50617274792F79
:104530004672656552544F532F536F757263652FE2
:1045400071756575652E63002F55736572732F69DC
:10455000676F72343034696B2F4837353056422FCD
:104560004D6964646C6577617265732F5468697214
:10457000645F50617274792F4672656552544F536F
:104580002F536F757263652F7461736B732E6300A5
:1045900049444C4500000000546D7220537663007E
:1045A0002F55736572732F69676F72343034696B7E
:1045B0002F4837353056422F4D6964646C657761FA
:1045C0007265732F54686972645F50617274792FD9
:1045D0004672656552544F532F536F757263652F42
:1045E00074696D6572732E6300000000546D725122
:1045F000000000002F55736572732F69676F723466
:104600003034696B2F4837353056422F4D6964641A
:104610006C6577617265732F54686972645F50616D
:104620007274792F4672656552544F532F536F75CC
:104630007263652F706F727461626C652F4D656D6A
:104640004D616E672F686561705F342E63000000F6
:104650002F55736572732F69676F72343034696BCD
:104660002F4837353056422F4D6964646C65776149
:104670007265732F54686972645F50617274792F28
:104680004672656552544F532F536F757263652F91
:10469000706F727461626C652F4743432F41524DB6
:1046A0005F434D34462F706F72742E63000000001C
:1046B0006C6F676765720000000000000102030470
:1046C0000102030406070809370000002F5573652F
:1046D00072732F69676F72343034696B2F483735C6
:1046E0003056422F436F72652F5372632F66726587
:1046F0006572746F732E630065746865726E65749D
:0447000000000000B5
:10470400F846000865430008000000008C0D0020F6
:10471400000400008C1D0020E81D002003000000A0
:104724000000000000000000B046000885430008B7
:1047340000000000EC1D002000040000EC2D00200F
:10474400482E0020030000000000000000000000CC
:04475400090300084D
:04475800E102000872
:10475C000090D0030090D003100000000100000076
:04476C00AAAAAAAAA1
:040000050800441D8E
:00000001FF
